:100000000C9463000C948B000C948B000C948B006C
:100010000C948B000C948B000C948B000C94A50218
:100020000C948B000C948B000C948B000C948B0024
:100030000C948B000C948B000C948B000C948B0014
:100040000C9459030C948B000C9427030C9401031B
:100050000C948B000C948B000C948B000C948B00F4
:100060000C948B000C948B000000000024002700EF
:100070002A000000000023002600290000000008DC
:10008000000201000003040700000000000000005F
:10009000010204081020408001020408102001021F
:1000A0000408102000000000250028002B00040494
:1000B0000404040404040202020202020303030310
:1000C000030302007F0511241FBECFEFD8E0DEBF7F
:1000D000CDBF11E0A0E0B1E0E8E6FBE002C0059092
:1000E0000D92A431B107D9F721E0A4E1B1E001C03C
:1000F0001D92AD3CB207E1F710E0C3E6D0E004C0CA
:100100002197FE010E94AC05C236D107C9F70E94B3
:10011000A3030C94B2050C940000AF92BF92CF924F
:10012000DF92EF92FF920F931F93CF93DF936C01B7
:100130007B018B01040F151FEB015E01AE18BF0898
:10014000C017D10759F06991D601ED91FC9101904A
:10015000F081E02DC6010995892B79F7C501DF9162
:10016000CF911F910F91FF90EF90DF90CF90BF90B4
:10017000AF900895FC01538D448D252F30E0842FDE
:1001800090E0821B930B541710F0CF9608950197BF
:100190000895FC01918D828D981761F0A28DAE0FAC
:1001A000BF2FB11D5D968C91928D9F5F9F73928F33
:1001B00090E008958FEF9FEF0895FC01918D828D5F
:1001C000981731F0828DE80FF11D858D90E008952C
:1001D0008FEF9FEF0895FC01918D228D892F90E084
:1001E000805C9F4F821B91098F73992708958DE141
:1001F00091E00E94EB0021E0892B09F420E0822F9E
:10020000089580E090E0892B29F00E94F700811189
:100210000C9400000895FC01A48DA80FB92FB11D06
:10022000A35ABF4F2C91848D90E001968F7399272C
:10023000848FA689B7892C93A089B1898C9183700A
:1002400080648C93938D848D981306C00288F38903
:10025000E02D80818F7D80830895EF92FF920F9330
:100260001F93CF93DF93EC0181E0888F9B8D8C8D62
:1002700098131AC0E889F989808185FF15C09FB756
:10028000F894EE89FF896083E889F9898081837019
:10029000806480839FBF81E090E0DF91CF911F91C8
:1002A0000F91FF90EF900895F62E0B8D10E00F5FE9
:1002B0001F4F0F731127E02E8C8D8E110CC00FB6BF
:1002C00007FCFACFE889F989808185FFF5CFCE0157
:1002D0000E940B01F1CFEB8DEC0FFD2FF11DE35AC6
:1002E000FF4FF0829FB7F8940B8FEA89FB898081DA
:1002F0008062CFCFCF93DF93EC01888D8823B9F054
:10030000AA89BB89E889F9898C9185FD03C0808120
:1003100086FD0DC00FB607FCF7CF8C9185FFF2CF9D
:10032000808185FFEDCFCE010E940B01E9CFDF91E7
:10033000CF910895833081F028F4813099F0823094
:10034000A9F008958730A9F08830C9F08430B1F45D
:10035000809180008F7D03C0809180008F77809393
:100360008000089584B58F7784BD089584B58F7D0E
:10037000FBCF8091B0008F778093B000089580917B
:10038000B0008F7DF9CF1F93CF93DF93282F30E0FC
:10039000F901E458FF4F8491F901E057FF4FD491E0
:1003A000F901E255FF4FC491CC23A9F0162F81111A
:1003B0000E949A01EC2FF0E0EE0FFF1FEC55FF4F6B
:1003C000A591B4918FB7F894EC91111108C0D09514
:1003D000DE23DC938FBFDF91CF911F910895DE2B39
:1003E000F8CF9091000189130BC0E2ECF0E0E491AA
:1003F0009FEF90930001E13049F028F0E23061F086
:1004000060E00C94C30110926E00FACF90916F00DF
:100410009D7F90936F00F4CF909170009D7F90939B
:10042000700091E09093B0009091B100987F94603B
:100430009093B1001092B300E3CFCF93DF9390E09D
:10044000FC01E057FF4F249182559F4FFC0184919E
:100450008823D1F090E0880F991FFC01E859FF4FE5
:10046000A591B491FC01EC55FF4FC591D491611158
:100470000EC09FB7F8948C91E22FE0958E238C9359
:100480002881E223E8839FBFDF91CF9108958FB742
:10049000F894EC91E22BEC938FBFF6CF3FB7F89432
:1004A0008091190190911A01A0911B01B0911C013A
:1004B00026B5A89B05C02F3F19F00196A11DB11DBF
:1004C0003FBFBA2FA92F982F8827BC01CD01620FFB
:1004D000711D811D911D42E0660F771F881F991FB6
:1004E0004A95D1F708958F929F92AF92BF92CF9283
:1004F000DF92EF92FF924B015C010E944E026B0172
:100500007C010E944E026C197D098E099F09683E8C
:10051000734081059105A8F321E0821A9108A10892
:10052000B10888EEC80E83E0D81EE11CF11C8114CE
:100530009104A104B10429F7FF90EF90DF90CF90D0
:10054000BF90AF909F908F9008951F920F920FB61B
:100550000F9211242F933F934F935F936F937F9349
:100560008F939F93AF93BF93EF93FF938091BF01BE
:100570009091C001A091C101B091C201892B8A2B39
:100580008B2BD1F19091BA01E091BB01F091BC01AC
:100590008081892780838091BF019091C001A091C3
:1005A000C101B091C201181619061A061B069CF467
:1005B0008091BF019091C001A091C101B091C20191
:1005C0000197A109B1098093BF019093C001A09345
:1005D000C101B093C201FF91EF91BF91AF919F9183
:1005E0008F917F916F915F914F913F912F910F90DC
:1005F0000FBE0F901F901895809100010E94F1018D
:10060000EACF1F920F920FB60F9211242F933F93B0
:100610004F935F936F937F938F939F93AF93BF930A
:10062000EF93FF938DE191E00E940B01FF91EF9119
:10063000BF91AF919F918F917F916F915F914F91FA
:100640003F912F910F900FBE0F901F9018951F9202
:100650000F920FB60F9211242F938F939F93EF93C6
:10066000FF93E0912D01F0912E018081E091330103
:10067000F091340182FD1BC09081809136018F5F23
:100680008F7320913701821741F0E0913601F0E03D
:10069000E35EFE4F958F80933601FF91EF919F911E
:1006A0008F912F910F900FBE0F901F901895808102
:1006B000F4CF1F920F920FB60F9211242F933F93F6
:1006C0008F939F93AF93BF938091150190911601E3
:1006D000A0911701B09118013091140123E0230F6C
:1006E0002D3758F50196A11DB11D2093140180935B
:1006F000150190931601A0931701B09318018091F2
:10070000190190911A01A0911B01B0911C01019651
:10071000A11DB11D8093190190931A01A0931B0193
:10072000B0931C01BF91AF919F918F913F912F91F9
:100730000F900FBE0F901F90189526E8230F02967A
:10074000A11DB11DD2CFCF93DF9300D0CDB7DEB7BF
:10075000789484B5826084BD84B5816084BD85B59C
:10076000826085BD85B5816085BD80916E008160A8
:1007700080936E001092810080918100826080934E
:100780008100809181008160809381008091800050
:100790008160809380008091B10084608093B1007B
:1007A0008091B00081608093B00080917A00846075
:1007B00080937A0080917A00826080937A008091A1
:1007C0007A00816080937A0080917A0080688093BB
:1007D0007A001092C100E0912D01F0912E0182E08B
:1007E0008083E0912901F0912A011082E0912B0190
:1007F000F0912C018FEC808310923501E091310152
:10080000F091320186E08083E0912F01F091300178
:10081000808180618083E0912F01F091300180819F
:1008200088608083E0912F01F091300180818068A1
:100830008083E0912F01F091300180818F7D808352
:1008400061E08DE00E941D0260E087E00E941D02D1
:1008500061E089E00E941D026FE3C62E6FE1D62E93
:1008600072ECE72E70E0F72EE7EB4E2EE0E05E2E06
:1008700009E910E088248A94982C540157E9252E20
:1008800050E0352E40E0642E40E0742E20E42093AA
:100890007C0080917A00806480937A0080917A0055
:1008A00086FDFCCF90917800809179008927982768
:1008B00089279093CC018093CB01E3E8F0E0849109
:1008C000F101F491F983E5EBF0E0F491FA83FF2371
:1008D00009F40EC181110E949A012A81E22FF0E0F1
:1008E000EE0FFF1FEE58FF4FA591B4918C919981A7
:1008F000892309F4FDC080910001893041F5F70199
:10090000F491F983F7FDC2C061E089E00E941D0205
:10091000F981FF2309F48BC02981223009F09BC0A3
:100920008091B100887F83608093B10089EF8093CC
:10093000B3008092BF019092C001A092C101B09219
:10094000C201809170008260809370009FC08F3FD1
:1009500009F09CC089E080930001F701F491F983CC
:10096000FF3F09F493C0F13021F158F0F23009F45F
:100970003DC0F981F7FD8AC061E089E00E941D0257
:10098000CBCF14BC15BC84B5826084BD85B58160B5
:1009900085BDF2018491E82FF0E0EE0FFF1FEC55CA
:1009A000FF4F85919491F80184918093BE01198243
:1009B000ABCF1092800010928100809181008860FE
:1009C0008093810080918100816080938100F20199
:1009D0008491E82FF0E0EE0FFF1FEC55FF4F85915B
:1009E0009491F80184918093BD018ECF1092B00054
:1009F0001092B1008091B00082608093B00080912D
:100A0000B10081608093B100F2018491E82FF0E0A1
:100A1000EE0FFF1FEC55FF4F859194919093BC0111
:100A20008093BB01F80184918093BA016DCF85B5A5
:100A3000887F836085BD8CE787BD8092C7019092D7
:100A4000C801A092C901B092CA0180916E00826073
:100A500080936E001BC08981813009F040C0809175
:100A60008100887F816080938100D0928900C0924C
:100A700088008092C3019092C401A092C501B092F7
:100A8000C60180916F00826080936F0068EE73E012
:100A900080E090E00E94730268EE73E080E090E0F6
:100AA0000E9473028091CB019091CC018C329140D5
:100AB0001CF561E08DE00E94C30160E177E280E017
:100AC00090E00E9473026114710409F4DFCE0E9469
:100AD000F700882309F4D6CE0E940000CFCE99817A
:100AE000923021F09111D2CF8FE3A6CF8FE31FCFA9
:100AF00089E00E94F101D0CF60E083E0DCCFEDE13E
:100B0000F1E01382128288EE93E0A0E0B0E08483EB
:100B10009583A683B78385E091E09183808385ECFC
:100B200090E09587848784EC90E09787868780ECB7
:100B300090E0918B808B81EC90E0938B828B82ECA8
:100B400090E0958B848B86EC90E0978B868B118E52
:100B5000128E138E148E0895EE0FFF1F0590F491E0
:080B6000E02D0994F894FFCF89
:100B6800FF000000002D018D00BA007A01EB00C9DA
:040B780000DD00009C
:00000001FF
